:020000040000FA
:060000000A128A110E280D
:10000800FE00030EF6000A08F7007F08F8000A123F
:100018008A11692B0A128A1111288313EB30FD000B
:100028001F30FE004930FF00CA3084000A168A15C6
:1000380019270A128A117030FD000830FE000230BC
:10004800FF006D3084000A168A1519270A128A11D2
:10005800831790308400A1300A168A15B1260A1237
:100068008A118313A0308400CA300A168A15B12673
:100078000A128A115F3084006D300A168A15B1267B
:100088000A128A11F901FA01FB01FC01FD01830141
:100098000A168A116A298316031336088312031372
:1000A800AA00AB012A08A0002B08A1000A30A20070
:1000B8000030A3000A168A15D9270A128A11831656
:1000C80003133708831203132007AC00003003180A
:1000D80001302107AD002C08F03EFB002D08031865
:1000E800013EFD3EFC0083160313390883120313F7
:1000F800AA00AB012A08A0002B08A1000A30A20020
:100108000030A3000A168A15D9270A128A11831605
:1001180003133A08831203132007AC0000300318B6
:1001280001302107AD002C08F03EDF002D08031830
:10013800013EFD3EE000831603133C0883120313BF
:10014800AA00AB012A08A0002B08A1000A30A200CF
:100158000030A3000A168A15D9270A128A118316B5
:1001680003133D08831203132007AC000030031863
:1001780001302107AD002C08F03E83160313A800B8
:10018800831203132D080318013EFD3E8316031343
:10019800A90001300A168A11B7220A128A1183129D
:1001A8000313AE003E302E06031DDB28DC283D2954
:1001B80079087A04031DE128E228F9287C08803AA6
:1001C800FF0080307F02031DEB2817307B02031CE1
:1001D800EE28EF28F228FB01FC013D290130FB073E
:1001E8000318FC0A0030FC073D2979037A04031D33
:1001F800FE28FF281A296008803AFF0080307F0215
:10020800031D08293B305F02031C0B290C29112907
:1002180083120313DF01E0013D2901308312031328
:10022800DF070318E00A0030E0073D2902307906AD
:100238007A04031D202921293D298316031329083F
:10024800803AFF0080307F02031D2C293B302802B2
:10025800031C2F293029352983160313A801A90166
:100268003D29013083160313A8070318A90A003093
:10027800A9073D30831203132E06031D442945297F
:100288005B290130F9070318FA0A0030FA077A08DF
:10029800803AFF0080307F02031D54290330790221
:1002A800031C572958291F2AF901FA011F2A373038
:1002B8002E06031D60296129182A0A30A000003083
:1002C800A1007C08A3007B08A2000A168A118223D9
:1002D8000A128A11831203132008AA002108AB000E
:1002E8000A30A0000030A1007C08A3007B08A2000F
:1002F8000A168A1135240A128A1183120313200858
:10030800AC0003300310AC0DFF3E031D862903101B
:100318002C0D2A04A80002300A168A156A270A1228
:100328008A110A3083120313A0000030A10060086C
:10033800A3005F08A2000A168A1182230A128A11F2
:10034800831203132008AA002108AB000A30A0007A
:100358000030A1006008A3005F08A2000A168A11F5
:1003680035240A128A11831203132008AC000330C3
:100378000310AC0DFF3E031DBC2903102C0D2A04ED
:10038800A80001300A168A156A270A128A110A304B
:1003980083120313A0000030A10083160313290859
:1003A80083120313A300831603132808831203136D
:1003B800A2000A168A1182230A128A1183120313D1
:1003C8002008AA002108AB000A30A0000030A100D4
:1003D80083160313290883120313A3008316031338
:1003E800280883120313A2000A168A1135240A1258
:1003F8008A11831203132008AC0003300310AC0DDC
:10040800FF3E031D022A03102C0D2A04A800003009
:100418000A168A156A270A128A11013083160313ED
:10042800B2000030B300682B2F302E06031D1D2AA2
:100438001E2A1F2A682B843083120313A4008430D9
:10044800A5008030A6000A168A119D200A128A117A
:100458008F3083120313A4008530A500C030A60096
:100468000A168A119D200A128A1179087A04031D36
:100478003E2A3F2A592A7D080319432A442A592A21
:10048800C43083120313A80020300A168A110B20E7
:100498000A128A11C53083120313A80020300A16E5
:1004A8008A110B200A128A118D2AC4308312031371
:1004B800A8000A30A0000030A1007C08A3007B0837
:1004C800A2000A168A1135240A128A11831203130C
:1004D8002008303E0A168A110B200A128A11C530EC
:1004E80083120313A8000A30A0000030A1007C0882
:1004F800A3007B08A2000A168A1182230A128A1115
:10050800831203132008303E0A168A110B200A12A0
:100518008A11C63083120313A8003A300A168A11CA
:100528000B200A128A1179037A04031D9C2A9D2A3A
:10053800B72A7D080319A12AA22AB72AC73083122D
:100548000313A80020300A168A110B200A128A11F8
:10055800C83083120313A80020300A168A110B2012
:100568000A128A11EB2AC73083120313A8000A3033
:10057800A0000030A1006008A3005F08A2000A16CE
:100588008A1135240A128A11831203132008303E77
:100598000A168A110B200A128A11C8308312031313
:1005A800A8000A30A0000030A1006008A3005F087E
:1005B800A2000A168A1182230A128A1183120313CF
:1005C8002008303E0A168A110B200A128A11C930F7
:1005D80083120313A8003A300A168A110B200A1254
:1005E8008A11023079067A04031DFB2AFC2A162B8D
:1005F8007D080319002B012B162BCA308312031315
:10060800A80020300A168A110B200A128A11CB3052
:1006180083120313A80020300A168A110B200A122D
:100628008A115A2BCA3083120313A8000A30A0007B
:100638000030A10083160313290883120313A300B3
:1006480083160313280883120313A2000A168A11BB
:1006580035240A128A11831203132008303E0A1621
:100668008A110B200A128A11CB3083120313A800B7
:100678000A30A0000030A100831603132908831252
:100688000313A30083160313280883120313A2007D
:100698000A168A1182230A128A1183120313200868
:1006A800303E0A168A110B200A128A118F308312E3
:1006B8000313A4008530A500CC30A6000A168A11C1
:1006C8009D200A128A11CD2808000B1D6C2B6D2B5A
:1006D800E32B831203130108083E810001308316BF
:1006E8000313AE070318AF0A0030AF0720302E06F9
:1006F8004E3003192F06031D822B832BE22BAE01EC
:10070800AF0103308312031365066604031D8D2BA6
:100718008E2BA32B6E08803AFF0080307F02031DCA
:10072800972B01306D02031C9A2B9B2BA32BFF30B8
:1007380083120313ED070318EE0AFF30EE07831246
:10074800031365036604031DAA2BAB2BDA2B831650
:10075800031330083104031DB22BB32BC52B8312AE
:1007680003136708C03EF4005F300A168A15042791
:100778000A128A11013083160313B0000030B10049
:10078800DA2B30033104031DCA2BCB2BDA2B83124F
:1007980003136708C03EF40020300A168A150427A0
:1007A8000A128A1183160313B001B1017D080319D7
:1007B800DE2BE02B0130E12B0030FD000B11780817
:1007C800FF0077088A00760E8300FE0E7E0E090071
:1007D80000300A168A11D0200A128A1183120313D4
:1007E800AA007F30AA052A08A80000300A168A1530
:1007F8006A270A128A1108002D342D342D342D341D
:100808002D342D342D342D342D342D342D342D34D8
:100818002D342D342D342D342D342D342D342D34C8
:100828002D342D342D342D342D342D342D342D34B8
:100838002D342D342D342D340D340A3400344E34F7
:100848004F3420344C346F3467347334203450348C
:1008580072346534733465346E34743420345434EB
:100868006F34203444346F3477346E346C346F34DE
:100878006134643400342334203420342034543434
:1008880049344D3445342034203420342034453420
:10089800563420345334503400345334653474346B
:1008A8002034543469346D34653420342034203491
:1008B80020342034203420342034003420342034B0
:1008C80020342034203446346F3475346E34643424
:1008D8002034203420342034203420340034203490
:1008E80020342034203420344C346F34673473344B
:1008F8002E342E342E342034203420342034003446
:100908002034203420342034483448343A344D34A8
:100918004D343A3453345334203420342034203482
:100928000034203420342034203443346C3465348B
:100938006134723469346E3467342034203420349E
:100948002034003420342034203420344E346F34A2
:10095800203420344C346F346734733420342034DA
:1009680020342034003420342034203420342034FF
:100978004E346F3420344C346F346734733420343D
:1009880020342034203400342034203444346F346C
:1009980077346E346C346F346134643469346E3453
:1009A8006734203420342034003420342034543444
:1009B8004F342034203444344F3457344E344C347C
:1009C8004F3441344434203420340034203420342B
:1009D8005334753463346334653473347334663430
:1009E80075346C346C3479342034203400344E340B
:1009F8004F3420344C344F3447345334203450343B
:100A080052344534533445344E345434203400344D
:100A18002034203444346F34653473346E342734CE
:100A2800743420344D34613474346334683420347D
:100A38000034203446346F3475346E3464342034D2
:100A480074346F34203463346C34653461347234F4
:100A58002034003420345234653445346E347434D0
:100A680065347234653464342034503461347334FA
:100A78007334203400342334203420342034543464
:100A880049344D34453420342034203445345634E8
:100A98002034533450340034503461347334733454
:100AA80077346F34723464342034433468346134B6
:100AB8006E34673465346434003445346E347434C9
:100AC800653472344E346534773450346134733459
:100AD800733477346F347234643400345234653488
:100AE80045346E3474346534723420344E3465348D
:100AF8007734203450346134733473340034203400
:100B0800203420342034203420342034203420343D
:100B1800203420342034203420342034203400344D
:100B280045346E347434653472342034503461344E
:100B38007334733477346F3472346434203420342B
:100B48000034203445346E347434653472342034BF
:100B5800503461347334733477346F34723464349A
:100B6800203400342034543449344D34453420344E
:100B78002034203420342034453456342034203472
:100B8800533450340034563469346534773420345F
:100B98004C346F34673420342034203420342034EB
:100BA80020342034003463346C3465346134723456
:100BB80020344C346F3467342034203420342034CB
:100BC80020342034003444346F3477346E346C3439
:100BD8006F346134643420344C346F3467342034D7
:100BE8002034203400344334683461346E3467343C
:100BF80065342034503461347334733477346F344B
:100C0800723464340034573472346F346E34673459
:100C18002034503461347334733477346F3472341D
:100C280064342034003420344134743474346534EA
:100C38006D3470347434733420346C3465346634F1
:100C480074342034003454347234793420344134C8
:100C580066347434653472343A342034003473346E
:100C680020342034003443342034003447343134C1
:100C78000034473432340034473433340034473492
:100C88003434003447344E3400344F344E34003456
:100C980047345234003483120313E701E80101306A
:100CA800E5000030E6006130A4008530A500803002
:100CB800A6000A168A119D200A128A11833083120F
:100CC8000313A4008530A500C030A6000A168A11B7
:100CD8009D200A128A1101300A168A11B7220A12B7
:100CE8008A1183120313B7006808803AFF00803026
:100CF8007F02031D812E043067020318842E852E7F
:100D0800BB2E3E30831203133706031D8C2E8D2E07
:100D1800A52E6708323E84003130831380006708AF
:100D2800C03EA8002A300A168A110B200A128A111E
:100D3800013083120313E7070318E80A0030E807B5
:100D48006F2E3D303706031DAA2EAB2E6F2E670877
:100D5800323E84003030831380006708C03EA8000C
:100D68002A300A168A110B200A128A119C2E043086
:100D78008312031367066804031DC32EC42E6F2E47
:100D880065036604031DC92ECA2E6F2E6708323EFE
:100D9800840083138001E701E8017230A4008530E4
:100DA800A5008030A6000A168A119D200A128A1111
:100DB800833083120313A4008530A500C030A60039
:100DC8000A168A119D200A128A1101300A168A1100
:100DD800B7220A128A1183120313B7006808803AEF
:100DE800FF0080307F02031DFB2E043067020318CA
:100DF800FE2EFF2E352F3E30831203133706031DB8
:100E0800062F072F1F2F67082D3E840031308313CC
:100E180080006708C03EA8002A300A168A110B20F5
:100E28000A128A11013083120313E7070318E80A2C
:100E38000030E807E92E3D303706031D242F252F03
:100E4800E92E67082D3E8400303083138000670840
:100E5800C03EA8002A300A168A110B200A128A11ED
:100E6800162F04308312031367066804031D3D2FF1
:100E78003E2FE92E65036604031D432F442FE92EF8
:100E880067082D3E8400831380013230A0002D3086
:100E9800A1000A168A1148200A128A118312031324
:100EA80020082104031D592F5A2F952FE630A00042
:100EB8003230A1000430A2000030A3000A168A11C3
:100EC80072200A128A11023083120313E5000030DF
:100ED800E6005030A4008530A5008030A6000A1630
:100EE8008A119D200A128A11EA3083120313A40082
:100EF8008430A500C030A6000A168A119D200A1267
:100F08008A111A3083120313AC005E30AB006D30C7
:100F1800AA00AA0B8D2FAB0B8D2FAC0B8D2F942F06
:100F2800C02F0230E5000030E6002E30A4008530E6
:100F3800A5008030A6000A168A119D200A128A117F
:100F48000C3083120313A4008530A500C030A6001E
:100F58000A168A119D200A128A111A308312031365
:100F6800AC005E30AB006D30AA00AA0BB92FAB0BFA
:100F7800B92FAC0BB92FC02F080083120313A3009D
:100F88002018C72FCB2F831203130915CE2F8312D6
:100F9800031309112308F03988008914A530831236
:100FA8000313A100A10BD62FD92F83120313891085
:100FB80023080F39A10003300310A10DFF3E031DC4
:100FC800E02F0310210D88008914A5308312031324
:100FD800A100A10BED2FF02F8312031389101B30F2
:100FE80083120313A2009D30A100A10BF92FA20BBD
:060FF800F92FFE2F080096
:101004001E340034013483120313AC01AD010230E9
:10101400831203132C062D040319112812282E28D9
:1010240005302C062D04031D182819281A282E28EB
:101034002C08B63E840083130008A10063080A1636
:101044008A11D4210A128A15013083120313E3078B
:101054000318E40A0030E4070130AC070318AD0AB2
:101064000030AD072D08803AFF0080307F02031D59
:101074003D2808302C02031C4028412809288312EB
:1010840003136908A5002507CA3E840083130008DA
:10109400A600840A0008A7002708FF002608840089
:1010A4000A168A1500200A128A15A10063080A1676
:1010B4008A11D4210A128A15013083120313E3071B
:1010C4000318E40A0030E4070130A5006908A6000B
:1010D4002607CA3E840083130008A700840A000878
:1010E400A80025082707AA002808A9000318A90AA8
:1010F400A51BA9032908AB002B08FF002A088400BC
:101104000A168A1500200A128A15A10063080A1615
:101114008A11D4210A128A15013083120313E307BA
:101124000318E40A0030E407831603134408831207
:101134000313A10063080A168A11D4210A128A151E
:10114400013083120313E3070318E40A0030E407B1
:1011540083160313450883120313A10063080A16B8
:101164008A11D4210A128A15013083120313E3076A
:101174000318E40A0030E407633063066404031DC3
:10118400C428C528C728E301E4016C08803AFF009D
:1011940080307F02031DD0280A306B020318D32845
:1011A400D428DC28013083120313EB070318EC0A5C
:1011B4000030EC07080083120313AD006B086C04C5
:1011C400031DE528E628D029A630A4008430A50014
:1011D4008030A6000A168A119D200A128A156230F0
:1011E40083120313A4008430A500C030A6000A169D
:1011F4008A119D200A128A151A3083120313AC0037
:101204005E30AB006D30AA00AA0B0629AB0B062991
:10121400AC0B06290D29D82901300A168A11B722E8
:101224000A128A1583120313AD003E302D06031DE6
:101234001C291D293C29013083160313A407031814
:10124400A50A0030A5072508803A83120313AA00D3
:101254006C08803A2A02031D33296B088316031392
:101264002402031C362937296D2983160313A4018C
:10127400A5016D293D302D06031D4129422962290E
:101284008316031324082504031D49294A295B29CD
:10129400831203136B08FF3E83160313A400831207
:1012A40003136C080318013EFF3E83160313A500C5
:1012B4006D29FF30A4070318A50AFF30A5076D297F
:1012C4002F302D06031D672968296D298316031302
:1012D400A401A501D8298316031325088312031337
:1012E400A10083160313240883120313A0000A30F9
:1012F400A2000030A3000A168A15D9270A128A15FB
:1013040083120313210883160313A7008312031304
:10131400200883160313A600C03083120313A80009
:10132400831603132408303E0A168A110B200A126E
:101334008A1583160313270883120313A700831641
:101344000313260883120313A6000A168A11DB234B
:101354000A128A153F3083120313A4008530A500B6
:101364008030A6000A168A119D200A128A15C130FF
:1013740083120313A80020300A168A110B200A12C4
:101384008A15903083120313A4000130A500C230E3
:10139400A6000A168A119D200A128A152F3083127C
:1013A40003132D06031DD729D8290E2908008312FB
:1013B4000313C600DA3084003C30B8000A30B900A8
:1013C40083130008BA00040ABB00380884003A08F2
:1013D4008000040AB8003B088400B90BE2296108C4
:1013E400B80038073C3E84000008A400840A0008C2
:1013F4008403A5008130A6000A168A119D200A12D2
:101404008A15831203136208803AFF0080307F023A
:10141400031D0E2A043061020318112A122A282AF5
:10142400831203136108B8003807023E3C3E84006F
:1014340083130008A400840A00088403A500C130B3
:10144400A6000A168A119D200A128A158316031310
:101454002C082D04031D2F2A302A452A803083129C
:101464000313A8002A300A168A110B200A128A15BF
:10147400C03083120313A80020300A168A110B20EF
:101484000A128A15592AC03083120313A8002A307D
:101494000A168A110B200A128A158030831203134C
:1014A400A80020300A168A110B200A128A153E3031
:1014B400831203134606031D602A612A842A8316B5
:1014C40003132C032D04031D682A692A6C2AAC011A
:1014D400AD010B2B831203136208803AFF008030A6
:1014E4007F02031D772A01306102031C7A2A7B2ABA
:1014F4000B2BFF3083120313E1070318E20AFF30BA
:10150400E2070B2B3D304606031D892A8A2AAF2A9F
:10151400831603132C082D04031D912A922A972A5B
:101524000130AC000030AD000B2B831203136208B2
:10153400803AFF0080307F02031DA22A033061023B
:101544000318A52AA62A0B2B013083120313E107E3
:101554000318E20A0030E2070B2B37304606031D5E
:10156400B42AB52A0B2B831603132C0883120313F6
:10157400610783160313AA002D0803182D0A83128A
:101584000313620783160313AB00F52A83120313B4
:1015940046080A128A15DD200A128A150B2B8312BB
:1015A400031346080A168A1136230A128A150B2BCE
:1015B4008312031346080A168A1115270A128A157C
:1015C4000B2B8312031346080A128A114F200A12A6
:1015D4008A150B2B8312031346080A128A114F260D
:1015E4000A128A150B2B2B08003A0319FA2A0B2B23
:1015F4002A08003A0319C82A013A0319D12A033ADE
:101604000319DA2A013A0319E32A073A0319EC2ADF
:101614000B2B080083120313DC0083160313B2019F
:10162400B301B63083120313A4008530A5008030C3
:10163400A6000A168A119D200A128A15C730831241
:101644000313A4000A168A15B3270A128A15C73091
:1016540083120313A7000A168A1100250A128A1599
:101664003E30831203135C06031D392B3A2B612B86
:10167400073069066A04031D402B412B4B2B0130B4
:10168400E9000030EA000A128A1505200A128A15B8
:10169400A62B6A08803AFF0080307F02031D542B7A
:1016A400063069020318572B582BA62B01308312DE
:1016B4000313E9070318EA0A0030EA07452B3D3013
:1016C4005C06031D662B672B8F2B073069066A04A3
:1016D400031D6D2B6E2B772B0130E9000030EA00DF
:1016E4000A128A1505200A128A15831203136A083E
:1016F400803AFF0080307F02031D822B0230690292
:10170400031C852B862BA62BFF3083120313E907BA
:101714000318EA0AFF30EA07452B3B305C06031D39
:10172400942B952B9A2B0730E9000030EA00452BC7
:1017340037305C06031D9F2BA02BA62B5C080A12D6
:101744008A156E240A128A15913083120313A40099
:101754008530A500C830A6000A168A119D200A12F9
:101764008A15831203136908D8005807CA3E8400F7
:1017740083130008A400840A00088403A500CA3067
:10178400A6000A168A119D200A128A159130831226
:101794000313A4008530A500CC30A6000A168A11D4
:1017A4009D200A128A1500300A168A1528270A1263
:1017B4008A15831203132008D8002108D900DA01FE
:1017C400DB015B08A9005A08A8005908A7005808BB
:1017D400A60000300A168A115F260A128A1583129F
:1017E40003132908BB002808BA002708B9002608F3
:1017F400B8004130B7002330B600AE30B500143025
:10180400B4000A128A1536260A128A1583120313A3
:101814003708D1003608D0003508CF003408CE0090
:101824000A168A116A250A128A15831203134F08AD
:1018340083160313B500831203134E088316031390
:10184400B4000A3083120313A0000030A1008316F1
:101854000313350883120313A300831603133408F8
:1018640083120313A2000A168A11F2220A128A159D
:10187400831203132008303E83160313C4000A3076
:1018840083120313A0000030A1008316031335084C
:1018940083120313A3008316031334088312031360
:1018A400A2000A168A117D220A128A1583120313D2
:1018B4002008303E83160313C500C601C4308312CA
:1018C4000313A4000030A500CE30A6000A168A1126
:1018D4009D200A128A150800943083120313A40071
:1018E4008530A5008030A6000A168A119D200A12B0
:1018F4008A15833083120313A4008530A500C030F9
:10190400A6000A168A119D200A128A150130831234
:101914000313E5000030E60001300A168A11B722ED
:101924000A128A1583120313CB006808803AFF0059
:1019340080307F02031DA02C043067020318A32CFF
:10194400A42CDA2C3E30831203134B06031DAB2C5C
:10195400AC2CC42C6708BF3E840031308313800054
:101964006708C03EA8002A300A168A110B200A1202
:101974008A15013083120313E7070318E80A0030BD
:10198400E807842D3D304B06031DC92CCA2C842D39
:101994006708BF3E84003030831380006708C03E70
:1019A400A8002A300A168A110B200A128A15BB2CA9
:1019B40004308312031367066804031DE22CE32C2E
:1019C400842D65036604031DE82CE92C842D670827
:1019D400BF3E840083138001E630A000BF30A10025
:1019E4000A168A1148200A128A1583120313200842
:1019F4002104031DFE2CFF2C1E2D8330A4008530F2
:101A0400A5008030A6000A168A119D200A128A15A4
:101A1400833083120313A4008530A500C030A600D0
:101A24000A168A119D200A128A15023083120313A2
:101A3400E5000030E600842DFF3083160313E4072D
:101A44000318E50AFF30E50764086504031D2B2D20
:101A54002C2D332D033083120313E5000030E600F0
:101A6400842D83120313E701E801E501E6018316DF
:101A740003136408303E83120313CA000730A40022
:101A84008630A5008030A6000A168A119D200A120D
:101A94008A15C03083120313A8004A080A168A1153
:101AA4000B200A128A15173083120313A400863000
:101AB400A500C130A6000A168A119D200A128A15B3
:101AC400173083120313C900D530C8001530C7007E
:101AD400C70B6A2DC80B6A2DC90B6A2D712D833073
:101AE40083120313A4008530A500C030A6000A1693
:101AF4008A119D200A128A15013083120313E5000E
:101B04000030E600023065066604031D8A2D8B2D25
:101B1400A62D4B080A128A15D9210A128A15831692
:101B2400031332033304031D982D992D8E2C831235
:101B34000313E701E801E501E6010330831603130B
:101B4400E4000030E500352E033065066604031D0D
:101B5400AC2DAD2D8E2C2730A4008630A500C030CE
:101B6400A6000A168A119D200A128A15CB30831208
:101B74000313A8000A30A0000030A1006E08A300DF
:101B84006D08A2000A168A1135240A128A158312D6
:101B940003132008303E0A168A110B200A128A15F4
:101BA400CC3083120313A8000A30A0000030A10037
:101BB4006E08A3006D08A2000A168A1182230A1275
:101BC4008A15831203132008303E0A168A110B204B
:101BD4000A128A15333083120313A4008630A50039
:101BE400CD30A6000A168A119D200A128A15831286
:101BF40003136D086E04031D002E012E8E2C1E305F
:101C0400ED000030EE008330A4008530A500803064
:101C1400A6000A168A119D200A128A15A53083127D
:101C24000313A4008530A5008030A6000A168A118B
:101C34009D200A128A15833083120313A400853071
:101C4400A500C030A6000A168A119D200A128A1522
:101C540083120313E701E801033083160313E4003E
:101C64000030E500882C0800831203133B08C500EC
:101C74008030C5053B08BC003C07CC00BA1F432E8E
:101C8400442E452E4C144C080319492E4A2E5A2E24
:101C94004C0A031D4E2E4F2E572E0030BB00003031
:101CA400BA000030B9000030B800BA17BB01622E88
:101CB4000030BB000030BA000030B9000030B8007A
:101CC40037088039C5063708BC003C07CD00B61F6D
:101CD4006C2E6D2E6E2E4D144D080319722E732E1C
:101CE400832E4D0A031D772E782E802E0030B700E8
:101CF4000030B6000030B5000030B400B617B701AC
:101D04008B2E0030B7000030B6000030B500003034
:101D1400B4003708360435043404031D922E932E80
:101D2400AA2E0030BB000030BA000030B9000030E9
:101D3400B8008030BA047F30BB044508BB043B08BC
:101D4400B7003A08B6003908B5003808B400FF2FC8
:101D54004C08031DAE2EAF2EB82E0030B700003055
:101D6400B6000030B5000030B400FF2F4C08BC00B2
:101D7400BD013D08BF004D083C02BE00031CBF036B
:101D84003E087F3EC6003F080318013E003EC700E0
:101D94003B08C4003A08C3003908C2003808C1002F
:101DA4000030BB000030BA000030B9000030B80089
:101DB4000030CB000030CA000030C9000030C80039
:101DC400CD012C2F4D080319E82EE92E092F0130DF
:101DD400BC000310C10DC20DC30DC40DBC0BEB2E12
:101DE4000130BC000310B80DB90DBA0DBB0DBC0B0E
:101DF400F42ECB1FFE2EFF2E002F38140130BC0012
:101E04000310C80DC90DCA0DCB0DBC0B022F37082A
:101E14004402031D172F36084302031D172F3508EC
:101E24004202031D172F34084102031C1A2F1B2FD3
:101E34002A2F4B173408C1023508031C350FC20280
:101E44003608031C360FC3023708031C370FC402BD
:101E54000130CD071A304D02031C312F322FE42EEE
:101E640044084304420441040319392F3A2F592FDB
:101E74004814592F0130BC000310B80DB90DBA0D28
:101E8400BB0DBC0B3E2FCB1F482F492F4A2F3814B4
:101E94000130BC000310C80DC90DCA0DCB0DBC0B1D
:101EA4004C2FFF30C6070318C70AFF30C707BA1FF5
:101EB4005C2F5D2F3C2FCD01CB1F612F622F7E2F16
:101EC400FF304805BC00FF304905BD00FF304A051E
:101ED400BE007F304B05BF003F083E043D043C0478
:101EE4000319752F762F792F0130CD007E2F381CE2
:101EF4007C2F7D2F7E2F762F4D080319822F832F61
:101F0400B42F0130B807003003180130B90700308E
:101F140003180130BA07003003180130BB073B1C1B
:101F2400942F952FB42F3808BC003908BD003A0807
:101F3400BE003B08BF000130C0003F0DBF0CBE0C0B
:101F4400BD0CBC0CC00B9F2F3F08BB003E08BA0061
:101F54003D08B9003C08B8000130C6070318C70A99
:101F64000030C7074708803AFF0080307F02031D16
:101F7400BD2FFF304602031CC02FC12FCF2FFF30CF
:101F840083120313C6000030C7000030BB000030CA
:101F9400BA000030B9000030B800831203134708B8
:101FA400803AFF0080307F02031DDA2F01304602A1
:101FB4000318DD2FDE2FEB2F83120313C601C70195
:101FC4000030BB000030BA000030B9000030B80067
:101FD400C501831203134608CC004C1CF22FF32FC7
:101FE400F52FBA17F72F7F30BA054C08BC00031041
:101FF4003C0CBB004508BB04A12E08008316031348
:102004008801091189100A168A11E0250A168A1115
:10201400080083120313A900A00128080A128A11D8
:10202400C1270A168A1183120313A001A00A2908E2
:102034000A128A11C1270A168A11080037282208B1
:10204400FF00210884000A168A1500200A168A1146
:102054000A168A15CB260A168A1101308312031335
:10206400A1070318A20A0030A2078312031322084F
:10207400FF00210884000A168A1500200A168A1116
:10208400003A031D46284728212808005E28210815
:1020940084000008A2002008840000082206031916
:1020A400542855285A280130A0000030A100712876
:1020B4000130A0070130A107831203132008840014
:1020C40083130008031D6728682849282108840011
:1020D4000008031D6E286F284928A001A1010800EB
:1020E40083120313A601A7018E2883120313260863
:1020F4002107A4002408840083130008FF00260895
:102104002007A500250884007F0880000130A60769
:102114000318A70A0030A7072708803AA400230859
:10212400803A2402031D982822082602031C9B28B7
:102134009C287728080083120313A00126080A129A
:102144008A11C1270A168A11BF28A001A00A2508EE
:10215400FF00240884000A168A1500200A168A1132
:102164000A128A11C1270A168A1101308312031335
:10217400A4070318A50A0030A50783120313250832
:10218400FF00240884000A168A1500200A168A1102
:10219400003A031DCE28CF28A72808008312031372
:1021A400A2000A168A15B9260A168A11D0300A1610
:1021B4008A15F7260A168A118312031322080A16AF
:1021C4008A15F7260A168A110A168A15DF260A16B0
:1021D4008A11D1300A168A15F7260A168A11003098
:1021E4000A168A158E270A168A1183120313A3006E
:1021F4000A168A15C2260A168A11831203132308A3
:10220400080083120313A2000A168A15B9260A16B7
:102214008A11A0300A168A15F7260A168A11831223
:10222400031322080A168A15F7260A168A110A16B3
:102234008A15DF260A168A11A1300A168A15F7268E
:102244000A168A1100300A168A158E270A168A1170
:1022540083120313A3000A168A15C2260A168A11CA
:1022640083120313230808008312031394152E0802
:10227400B2002F08B3003008B4003108B5000230B2
:102284000310B20DB30DB40DB50DFF3E031D42296D
:102294003508A3003408A2003308A1003208A000C6
:1022A4000130A7003130A6002D30A5000030A40075
:1022B4000A168A119A240A168A1183120313200813
:1022C400FF3E83160313930083120313941608002E
:1022D4000A168A1144220A168A1183120313DE0194
:1022E40001300A168A11B7220A168A1183120313BF
:1022F400DD0037305D06031D8029812983290130E3
:10230400DE005E08031D872988298F295D080A12CB
:102314008A150C230A168A1172295E03031D932958
:10232400942972295D080A128A150C230A168A1147
:1023340072290A128A110E28F3007018A229A629FC
:10234400831203130915A9298312031309117308AE
:10235400F03988008914A630F100F10BAF29000090
:1023640083120313891073080F39F100033003102B
:10237400F10DFF3E031DB9290310710D8800891466
:10238400A630F100F10BC429000083120313891055
:102394001B30F2009E30F100F10BCE29F20BCE2956
:1023A4000000080083120313A4000A168A15B92634
:1023B4000A168A11A0300A168A15F7260A168A11F7
:1023C4008312031324080A168A15F7260A168A119B
:1023D4008312031321080A168A15F7260A168A118E
:1023E4000A168A15C2260A168A11B83083120313F4
:1023F400A2000B30A3000130A2020030031CA3038F
:10240400A302220A031D0A2A230A031D0A2A0B2AED
:10241400FD29080083120313981718168316031353
:102424001815831203132E08B2002F08B3003008C6
:10243400B4003108B50004300310B20DB30DB40D6F
:10244400B50DFF3E031D1E2A3508A3003408A20063
:102454003308A1003208A0000130A7003130A600E3
:102464002D30A5000030A4000A168A119A240A16F9
:102474008A11831203132008FF3E83160313990065
:102484008C1608000A168A15AA260A168A110A1634
:102494008A1100200A168A110A168A15A4260A1619
:1024A4008A11003083120313B1000130B00086306A
:1024B400AF00A030AE000A168A1136210A168A111E
:1024C4000A128A11EC230A168A11003083120313AC
:1024D400B1000030B0002530AF008030AE000A16E5
:1024E4008A110C220A168A110A168A15D5260A168A
:1024F4008A118B170800831203132008210403197F
:10250400842A852AB22A0130A400912A01300310BA
:10251400A00DA10DFF3E031D892A0130A407A11FB0
:10252400942A952A882A21082302031D9B2A20081D
:102534002202031C9E2A9F2AA52A2008A2022108FF
:10254400031CA303A30201300310A10CA00CFF3E43
:10255400031DA62A0130A402031DB12AB22A952A1A
:102564002308A1002208A000080083120313A2007C
:102574000608A3003F30A3052208031DC22AC32A6C
:10258400C52A2308F12A3F3023060319CA2ACB2A75
:10259400E82A6F080319CF2AD02AE82A8230831246
:1025A4000313A100DD30A000A00BD62AA10BD62A6C
:1025B400831203130608A3003F30A3053F3023060C
:1025C4000319E52AE62AF02AEF01C32A3F3023063D
:1025D400031DED2AEE2AF02A0130EF003F300800F7
:1025E40083120313A401A501200821040319FB2A63
:1025F400FC2A312B0130A600082B01300310A00D5A
:10260400A10DFF3E031D002B0130A607A11F0B2BBC
:102614000C2BFF2A01300310A40DA50DFF3E031D52
:102624000D2B21082302031D192B20082202031C51
:102634001C2B1D2B242B2008A2022108031CA303FE
:10264400A302241401300310A10CA00CFF3E031DAF
:10265400252B0130A602031D302B312B0C2B250812
:10266400A1002408A0000800831203136B086C0463
:10267400031D3D2B3E2B662BB730A4008430A500F0
:102684008030A6000A168A119D200A168A111D3070
:1026940083120313A4008530A500C030A6000A16D7
:1026A4008A119D200A168A111A3083120313A90075
:1026B4005E30A8006D30A700A70B5E2BA80B5E2B25
:1026C400A90B5E2B652B812BEB01EC019530A4004B
:1026D4008430A5008030A6000A168A119D200A16AF
:1026E4008A11733083120313A4008430A500C03010
:1026F400A6000A168A119D200A168A11562B080074
:1027040083120313A501A31F882B892B902BA209E5
:10271400A309A20A0319A30A0130A500A11F932B40
:10272400942B992BA009A109A00A0319A10A200836
:10273400210403199E2B9F2BCC2B0130A400AB2B1F
:1027440001300310A00DA10DFF3E031DA32B01308A
:10275400A407A11FAE2BAF2BA22B21082302031D1C
:10276400B52B20082202031CB82BB92BBF2B200841
:10277400A2022108031CA303A30201300310A10C2D
:10278400A00CFF3E031DC02B0130A402031DCB2B64
:10279400CC2BAF2B25080319D02BD12BD62BA20978
:1027A400A309A20A0319A30A2308A1002208A0006E
:1027B400080083120313A801A90102308312031332
:1027C400280629040319E72BE82BEF2B05302806EC
:1027D4002904031DEE2BEF2BF62B2808903E8400D2
:1027E4003A30831780001E2C083028062904031968
:1027F400FC2BFD2B042C0B3028062904031D032C71
:10280400042C0B2C2808903E840020308317800071
:102814001E2C2808903E840026080A168A110321DB
:102824000A168A1183178000013083120313A60746
:102834000318A70A0030A7070130A8070318A90A3C
:102844000030A9072908803AFF0080307F02031D69
:102854002D2C10302802031C302C312CDF2B831636
:102864000317A001080083120313A501A11F3B2C29
:102874003C2C432CA009A109A00A0319A10A013088
:10288400A500A31F462C472C4E2CA209A309A20A7B
:102894000319A30A0130A506A601A70120082104F3
:1028A4000319552C562C8B2C0130A400622C0130BA
:1028B4000310A00DA10DFF3E031D5A2C0130A407E7
:1028C400A11F652C662C592C01300310A60DA70DF1
:1028D400FF3E031D672C21082302031D732C2008CF
:1028E4002202031C762C772C7E2C2008A2022108BD
:1028F400031CA303A302261401300310A10CA00C93
:10290400FF3E031D7F2C0130A402031D8A2C8B2C57
:10291400662C250803198F2C902C952CA609A70941
:10292400A60A0319A70A2708A1002608A000080080
:10293400003083120313AC000030AB000030AA0057
:102944000030A90023082204210420040319AB2C1D
:10295400AC2CF72C0130AD00BA2C0130A8000310C8
:10296400A00DA10DA20DA30DA80BB12C0130AD0734
:10297400A31FBD2CBE2CAF2C0130A8000310A90D41
:10298400AA0DAB0DAC0DA80BC02C23082702031D08
:10299400D52C22082602031DD52C21082502031D4F
:1029A400D52C20082402031CD82CD92CE82C200870
:1029B400A4022108031C210FA5022208031C220FD4
:1029C400A6022308031C230FA702291401300310B5
:1029D400A30CA20CA10CA00CFF3E031DE92C01309A
:1029E400AD02031DF62CF72CBE2C2C08A3002B08DB
:1029F400A2002A08A1002908A000080083120313DA
:102A04002708840083130008A80004300310A80CCE
:102A1400FF3E031D082D28080339303E8316031397
:102A2400B600831203132708840000080F39303ED0
:102A340083160313B7003A30B80083120313270A2E
:102A440084000008A80004300310A80CFF3E031DF6
:102A5400262D28080739303E83160313B900831244
:102A64000313270A840000080F39303E831603132A
:102A7400BA003A30BB00831203132708023E8400D5
:102A84000008A80004300310A80CFF3E031D452DC8
:102A940028080739303E83160313BC00831203133E
:102AA4002708023E840000080F39303E83160313C2
:102AB400BD00BE01B63083120313A4000030A5008C
:102AC400C030A6000A168A119D200A168A11080031
:102AD400031083120313500D510DD7005708031D23
:102AE400742D752D7E2D0030D1000030D0000030C3
:102AF400CF000030CE00DF2D4E08D2004F08D300A7
:102B04005008D4005108D5001F300310D50CD40C44
:102B1400D30CD20CFF3E031D872D5208D600D017CC
:102B2400FF30CE05FF30CF05FF30D0050030D10592
:102B34009630D702D71F9F2DA02DB82D5708803A65
:102B4400973E0318A62DA72DA82D752D013003102F
:102B5400D10CD00CCF0CCE0CFF3E031DA92D01309F
:102B6400D707031DB62DB72DA82DCF2D2030570222
:102B7400031CBD2DBE2DCA2D752D0130D2000310AE
:102B8400CE0DCF0DD00DD10DD20BC12D0130D702FA
:102B94005708031DCE2DCF2DBF2D56080319D32D55
:102BA400D42DDF2DCE09CF09D009D109CE0A0319BE
:102BB400CF0A0319D00A0319D10A0800C3308312BB
:102BC4000313A500CC30A400A40BE62DA50BE62D21
:102BD400000083120313A00133300A128A11C127A3
:102BE4000A168A111B3083120313A5009D30A4001A
:102BF400A40BFA2DA50BFA2DFF2D83120313A001AC
:102C040033300A128A11C1270A168A11A530831299
:102C14000313A400A40B0C2E0F2E83120313A00184
:102C240033300A128A11C1270A168A11192E1A2E54
:102C3400000083120313A00102300A128A11C12773
:102C44000A168A11A53083120313A400A40B282E9C
:102C54002B2E83120313A00128300A128A11C127D4
:102C64000A168A11A53083120313A400A40B382E6C
:102C74003B2E83120313A00101300A128A11C127CB
:102C84000A168A11043083120313A5003D30A400F0
:102C9400A40B4A2EA50B4A2E83120313A0010C3059
:102CA4000A128A11C1270A168A11A5308312031346
:102CB400A400A40B5B2E5E2E080083120313AE0047
:102CC4002E080319662E672E7B2EA91F6A2E6B2EE3
:102CD4007B2E2609B0002709B1002809B200290972
:102CE400B300B00A0319B10A0319B20A0319B30AEB
:102CF400832E2908B3002808B2002708B10026084B
:102D0400B0002908280427042604031D8A2E8B2ECC
:102D1400942E0030A9000030A8000030A700003035
:102D2400A600142F9630AF00A22E0130AF07013059
:102D34000310B30CB20CB10CB00CFF3E031D9A2E61
:102D4400FE303305031DA72EA82E972EC22E013068
:102D5400AF070130B007003003180130B10700306D
:102D640003180130B207003003180130B3070130F3
:102D74000310B30CB20CB10CB00CFF3E031DBA2E01
:102D8400FF303305031DC72EC82EA92ED42E0130C3
:102D9400AF020130AA000310B00DB10DB20DB30D96
:102DA400AA0BCD2EB21BD72ED82EDE2E02302F0228
:102DB4000318DD2EDE2EC92E2F18E12EE22EEA2E68
:102DC400FF30B005FF30B1057F30B205FF30B305E9
:102DD4000310AF0C2F08AA00AB01AC01AD011830F1
:102DE4000310AA0DAB0DAC0DAD0DFF3E031DF22E6D
:102DF4002A08B0042B08B1042C08B2042D08B3042B
:102E04002E080319062F072F0C2FA91F0A2F0B2F8B
:102E14000C2FB3173308A9003208A8003108A70003
:102E24003008A6000800831203136B086C04031D0A
:102E34001C2F1D2F5B2F2330A1008430A2000A1603
:102E44008A1120200A168A11203083120313A1004C
:102E54008430A2000A168A1120200A168A11FB3037
:102E640083120313A4008430A5008030A6000A1640
:102E74008A119D200A168A11D93083120313A400E3
:102E84008430A500C030A6000A168A119D200A16B7
:102E94008A111A3083120313AC005E30AB006D301C
:102EA400AA00AA0B532FAB0B532FAC0B532F5A2F43
:102EB400FF2FC830A4008430A5008030A6000A1675
:102EC4008A119D200A168A11733083120313A400F9
:102ED4008430A500C030A6000A168A119D200A1667
:102EE4008A113F3083120313A1008430A2000A1612
:102EF4008A1120200A168A11203083120313A1009C
:102F04008430A2000A168A1120200A168A11003081
:102F140083120313A1008430A2000A168A11202010
:102F24000A168A1183120313AD01AE01E52F831231
:102F340003132D08303E0A168A15CB260A168A1169
:102F4400913083120313A1008530A2000A168A115E
:102F540020200A168A11831203132E08A1002D08BB
:102F6400A0000A30A2000030A3000A168A15D9274F
:102F74000A168A11831203132108A7002008A60049
:102F84000A168A11DB230A168A119030831203135E
:102F9400A1000130A2000A168A1120200A168A1103
:102FA400203083120313A1008430A2000A168A1170
:102FB40020200A168A11013083120313AD07031867
:102FC400AE0A0030AE072E08803AAA006C08803A98
:102FD4002A02031DEF2F6B082D02031CF22FF32F7F
:102FE400992F003083120313A1008430A2000A1623
:102FF4008A1120200A168A114B2F0800FF1B0A2869
:1030040083137F1883170008840A0319FF0A080032
:103014007F087F398A000408840A0319FF0A8200A2
:103D48008316031306083F388600080083160313FA
:103D58009F17831203131F14080064008001840A4C
:103D68000406031900340406B22E0A168A15EA2638
:103D78000A168A1583160313111408000A168A15E1
:103D8800EA260A168A1583160313111508008312EA
:103D98000313A0000C1ED12ED22ECE2E200899007F
:103DA800080083160313811281150630831203134A
:103DB80081008B1608000A168A15C2260A168A156B
:103DC8000A168A15B9260A168A15080083160313D7
:103DD8001419EF2EF02EEA2E11081F39031DF52EA7
:103DE800F62EEA2E080083120313A0000A168A157D
:103DF800EA260A168A15831203132008930008007E
:103E0800F500F00174080A168A119E210A168A150F
:103E1800F001F00A75080A168A119E210A168A15F9
:103E280008007E088A007F0882000A168A1515276E
:103E38000A168A158000840A04087D0603190034CE
:103E4800FF0A0319FE0A192F83120313A500250878
:103E5800A20003300310A20DFF3E031D2E2F1F08E2
:103E6800C73922049F001F151F193B2F3C2F382FDD
:103E78001E08A400831603131E0883120313A3004D
:103E88002408A1002308A0000800493486344634D9
:103E980086343A3486343D34863440348634433468
:103EA80086344C34863437348634C7348534D73432
:103EB8008534E734853451348434F7348534033415
:103EC8000034313431343034303400348312031345
:103ED800A9000A168A15B9260A168A15D0300A16B4
:103EE8008A15F7260A168A158312031329080A1653
:103EF8008A15F7260A168A158312031328080A1644
:103F08008A15F7260A168A150A168A15C2260A1667
:103F18008A15080083120313A0000A168A15EA26D8
:103F28000A168A158316031391150A168A15EA26A6
:103F38000A168A15831203131308A1002003031D10
:103F4800A62FA72FAB2F831603139116AE2F831618
:103F58000313911211168312031321080800831208
:103F680003132408840002300A168A11D0200A1686
:103F78008A158313800083120313240A84000130F6
:103F88000A168A11D0200A168A1583138000831214
:103F980003132408023E840000300A168A11D02038
:103FA8000A168A1583138000080083120313A401DC
:103FB800A501201CE02FE12FE72F2208A4070318F2
:103FC800A50A2308A50701300310A20DA30DFF3E83
:103FD800031DE82F01300310A10CA00CFF3E031DA8
:103FE800EF2F20082104031DFA2FFB2FDD2F2508B2
:083FF800A1002408A00008004C
:02400E00FB3F76
:00000001FF
